:100000000A128A11F42F00308A000408840A820739
:1000100000345334453454342034543449344D344A
:100020004534203428344D344D343A345334533429
:10003000293400342A343A3443346C34653461341E
:1000400072342034203423343A3445346E347434DA
:10005000653472340034203450346F34773465346E
:10006000723469346E34673420344F346E34203443
:10007000203400344D346934633472346F3477344F
:1000800061347634653420344F34763465346E34DC
:10009000003433342E3443346F346E347634653464
:1000A0006334743469346F346E34003432342E3433
:1000B0004734723469346C346C34003431342E3447
:1000C0004D346934633472346F34003434342E3434
:1000D00053347434613472347434003454344934D5
:0800E0004D3445342D34003489
:100CEC0001340A128A117D260A128A110800831611
:100CFC0003138801091189100A128A1141270A125B
:100D0C008A110800F00101300A128A11AA260A126F
:100D1C008A110430F5003D30F400F40B932EF50BE2
:100D2C00932E982E0800F500F00174080A128A110F
:100D3C00AA260A128A11F001F00A75080A128A1101
:100D4C00AA260A128A110800F3007018AE2EB22ED1
:100D5C00831203130915B52E83120313091173089B
:100D6C0088008914A630F100F10BBA2E0000831212
:100D7C00031389101B30F2009E30F100F10BC42ECE
:100D8C00F20BC42E000008008030F40056300A121A
:100D9C008A11EB260A128A11C030F4004E300A1266
:100DAC008A11EB260A128A119030F40041300A1293
:100DBC008A11EB260A128A11D030F4005E300A1226
:100DCC008A11EB260A128A110800F600F001740849
:100DDC000A128A11AA260A128A11062FF001F00AA9
:100DEC00760884000A128A1103200A128A110A1248
:100DFC008A11AA260A128A110130F5007508F60725
:100E0C00760884000A128A1103200A128A11003A09
:100E1C00031D112F122FF42E08000A128A117726A7
:100E2C000A128A110130FC000030FD00312F0A1229
:100E3C008A1194270A128A110230FC000030FD003E
:100E4C000A128A1188260A128A11312F0A128A1163
:100E5C00CA260A128A117D08003A0319362F312F3F
:100E6C007C08013A03191D2F033A03192C2F312F3B
:100E7C000A128A110028C330F500CD30F400F40BAF
:100E8C00452FF50B452FF00133300A128A11AA2693
:100E9C000A128A111B30F5009E30F400F40B542F0B
:100EAC00F50B542F0000F00133300A128A11AA26D8
:100EBC000A128A11A630F400F40B622F0000F00124
:100ECC0033300A128A11AA260A128A116D2F6E2F3C
:100EDC000000F00138300A128A11AA260A128A116F
:100EEC00A630F400F40B782F0000F00101300A1248
:100EFC008A11AA260A128A11A630F400F40B842F48
:100F0C000000F0010C300A128A11AA260A128A116A
:100F1C00A630F400F40B902F00000800FA017A08B8
:100F2C00803EF400FF300A128A1199260A128A11A7
:100F3C000330F9008A30F8005530F700F70BA42F76
:100F4C00F80BA42FF90BA42FAB2F0130F700770867
:100F5C00FA0710307A02031CB42FB52F952FC1302D
:100F6C00F40023300A128A11EB260A128A119130EE
:100F7C00F40032300A128A11EB260A128A11FB0194
:100F8C007B08D03EF400FF300A128A1199260A120F
:100F9C008A110330F9008A30F8005530F700F70B4E
:100FAC00D52FF80BD52FF90BD52FDC2F0130F700EF
:100FBC007708FB0710307B02031CE52FE62FC62FAA
:100FCC004030F9006A30F8009730F700F70BEC2F3F
:100FDC00F80BEC2FF90BEC2FF32F08000A128A11E7
:100FEC0076260A128A11A200A001A10183010A121D
:040FFC008A11132F14
:08400000FF3FFF3FFF3FFF3FC0
:02400E00FA3F77
:00000001FF
